:10000000F1C3000010C400000EC400000CC40000C6
:100010000AC4000008C4000006C4000004C40000B4
:1000200002C4000000C40000FEC30000FCC30000C6
:10003000FAC30000F8C30000F6C30000F4C30000D8
:10004000F2C30000F0C30000EEC30000ECC30000E8
:100050000C940309E8C30000E6C30000DBC70000FE
:100060000C94581E0C9443350C942D3EDCC30000B8
:10007000DAC30000B9C70000D6C30000D4C3000033
:10008000D2C30000D0C30000CEC30000CCC3000028
:100090000C9477350C945E3EC6C30000C4C30000C8
:1000A000C2C30000C0C30000BEC30000BCC3000048
:1000B000BAC30000B8C30000B6C30000B4C3000058
:1000C000B2C30000B0C30000AEC300000C94AB3557
:1000D0000C948F3EA8C30000A6C300000C94C03E41
:1000E000A2C30000FB160C171D172E173F17501741
:1000F0006117721783179617A917BC17F71D011EF2
:100100000B1E151E1F1E291E331EEA22F722042372
:1001100011231E232B23382345230B2F122F192F96
:10012000202F272F2E2F352F3C2F432F4A2F512F93
:10013000582F2C3632368B36F436FF363C37603744
:10014000BA37D137F0370D3824384C386338803817
:100150009738BF38D638F3380A39323949396639D1
:100160007D39A639BD39DA39F1391A3A313A4E3A80
:10017000653A4A3B613B7C3B993BAE3BCB3BE03B2A
:10018000FD3B123C2F3C433C603C743C913CA53C05
:10019000C23CD63CF33C073D243D383D553D693DCE
:1001A000863D9A3D6E616E00696E660000407A1071
:1001B000F35A00A0724E18090010A5D4E80000E818
:1001C0007648170000E40B54020000CA9A3B000076
:1001D00000E1F505000080969800000040420F0005
:1001E0000000A08601000000102700000000E803C6
:1001F000000000006400000000000A000000000091
:100200000100000000002C76D888DC674F0823DF4F
:10021000C1DFAE59E1B1B796E5E3E453C63AE65122
:10022000997696E8E6C28426EB898C9B62ED407C49
:100230006FFCEFBC9C9F40F2BAA56FA5F490055AE5
:100240002AF75C936B6CF9676DC11BFCE0E40D470A
:10025000FEF520E6B500D0ED902E0300943577052D
:100260000080841E080000204E0A000000C80C33E5
:100270003333330F986E12831141EF8D2114893B74
:10028000E65516CFFEE6DB18D1844B381BF77C1DF4
:10029000901DA4BBE424203284725E228100C9F147
:1002A00024ECA1E53D276364696E6F70737578581F
:1002B0005B004E414E494E495459494E46CDCCCC37
:1002C0003D0AD7233C17B7D13877CC2B329595E62A
:1002D000241FB14F0A000020410000C84200401C0A
:1002E0004620BCBE4CCA1B0E5AAEC59D743C03379B
:1002F0000332032D03280323031E03180311030AEB
:1003000003030320424154202000202D4E4F2D2076
:1003100000202D5945532D00455252333600455289
:100320005236004552523500455252340045525221
:10033000330045525232004552523100455252303C
:1003400000BB03B303AB03A3039B0393038B0383A0
:10035000037B0373036B0363035B032056502E3050
:10036000382000455252302E313200455252302E44
:10037000313100455252302E313000455252302E2C
:10038000303900455252302E303800455252302E0E
:10039000303700455252302E303600455252302E02
:1003A000303500455252302E303400455252302EF6
:1003B000303300455252302E303200455252302EEA
:1003C000303100004020100804020000000000004E
:1003D0000100007E306D79335B5F707F7B00000031
:1003E00000000000771F4E3D4F4700371000000E01
:1003F00000151D6700055B0F1C3E00003B00005010
:10040000415231000000000000721E000100042073
:1004100001504152312E3100000000731E010000D6
:10042000020302504152312E32000000007D1E02B4
:100430000000030102504152312E33000000000F32
:100440001F03000001020250415232000000000070
:1004500000721E040504160001504152322E310074
:100460000000009F23050004061502504152322E61
:100470003200000000A42306000407050250415288
:10048000322E3300000000A92307000408060250A2
:100490004152322E340000000039280800040907B8
:1004A00002504152322E3500000000992809000404
:1004B0000A0802504152322E3600000000F9280A84
:1004C00000040B0902504152322E3700000000CCCC
:1004D0001F0B00040C0A02504152322E380000005B
:1004E00000A32E0C00040D0B02504152322E390095
:1004F000000000B0240D00040E0C02504152322EB8
:100500003130000000B5240E00040F0D025041529E
:10051000322E3131000000AE2E0F0004100E0250BA
:100520004152322E3132000000B92E100004110F5A
:1005300002504152322E3133000000C42E1100040B
:10054000121002504152322E31340000002C1F1282
:100550000004131102504152322E3135000000CFF9
:100560002E130004141202504152322E3136000074
:1005700000DA2E140004151302504152322E313786
:10058000000000E52E15000405140250415233000E
:100590000000000000721E16171619040150415287
:1005A000332E310000000064261700161818025080
:1005B0004152332E32000000006D26180016171726
:1005C0000250415234000000000000721E191A1936
:1005D0001E1601504152342E3100000000721E1AC6
:1005E0001B191D1D01504152342E312E3100009433
:1005F0002D1B001A1C1C02504152342E312E320089
:10060000001A2A1C001A1B1B02504152342E3200C1
:1006100000000013301D00191A1A02504152350013
:10062000000000000076261E001E1F1903504152D4
:100630003600000000000061291F001F201E03502B
:10064000415237000000000000872B200020001FCF
:100650000300000000000000000000000000000097
:10066000000000000000000000000000000000008A
:10067000000000000000000000000000000000007A
:10068000000000000000000000000000000000006A
:10069000000000000000000000000000000000005A
:1006A000000000000000000000000000000000004A
:1006B000000000000000000000000000000000003A
:1006C0000000000000000000000000000000001E0C
:1006D00007190714070F070A0705070007FA06F3AB
:1006E00006EC06E50620424154202000202D4E4F06
:1006F0002D2000202D5945532D00455252333600F0
:10070000455252360045525235004552523400454A
:100710005252330045525232004552523100455236
:10072000523000D807D207CC07C607C007BA07B4B3
:1007300007AE07A807A2079C079607900784077BC8
:1007400007710768075E0755074B0702584E4F4B66
:10075000313203240002584F4B3543032400025426
:100760004E4F4B314503240002544F4B3530032488
:100770000002414E4F4B304203240002414F4B34A4
:10078000350324003B5339383B544444313B240067
:100790005331323B24005331313B24005331303B41
:1007A00024005330393B24005330383B240053306D
:1007B000373B24005330363B24005330353B240074
:1007C0005330343B24005330333B24005330323B0E
:1007D00024005330313B24005339383B4D53563FAE
:1007E000313B240011241FBECFEFD1E2DEBFCDBFCD
:1007F00000E00CBF13E0A0E0B2E0E6E9F7E900E0BA
:100800000BBF02C007900D92A232B107D9F726E0C4
:10081000A2E2B3E001C01D92A439B207E1F70E9441
:100820007D1A0C94C94BECCBF894F999FECF92BD8C
:1008300081BD60BDFA9AF99A78940895F894F9996F
:10084000FECF92BD81BDF89A789480B50895FF924D
:100850000F931F93CF93DF938C010396EFDFF82E56
:10086000C8010296EBDFC82FC8010196E7DFD82F39
:10087000C801E4DF4C2F50E060E070E05F29762F84
:10088000652F542F44274D2B762F652F542F442747
:100890008A019B01082BC901B80160932A03709358
:1008A0002B0380932C0390932D03DF91CF911F9105
:1008B0000F91FF900895CF92DF92EF92FF92CF9326
:1008C000DF93EC016A017B01642FAEDF99278F2D46
:1008D0007E2D6D2DCE010196A7DFB70188279927C0
:1008E000CE010296A1DF6F2D772788279927CE01A9
:1008F00003969ADFDF91CF91FF90EF90DF90CF903A
:100900000895CF92DF92EF92FF92CF93DF93EC01A5
:100910006A017B01409326035093270360932803C9
:1009200070932903642F80DF99278F2D7E2D6D2DE5
:10093000CE01019679DFB70188279927CE0102966B
:1009400073DF6F2D772788279927CE0103966CDFF9
:10095000DF91CF91FF90EF90DF90CF900895FF92BD
:100960000F931F93CF93DF938C01039667DFF82ECD
:10097000C801029663DFC82FC80101965FDFD82F38
:10098000C8015CDF4C2F50E060E070E05F29762FFB
:10099000652F542F44274D2B762F652F542F442736
:1009A0008A019B01082BC901B8016093220370934F
:1009B00023038093240390932503DF91CF911F910C
:1009C0000F91FF90089562E080E090E02DDF62E0FB
:1009D00081E090E029DF65E082E090E025DF6AE0D9
:1009E00083E090E021DF40E157E260E070E084E0E6
:1009F00090E061DF40E553EC60E070E088E090E07B
:100A00005ADF68E08CE090E00FDF61E08DE090E07D
:100A10000BDF62E08EE090E007DF62E08FE090E0C5
:100A200003DF61E080E190E0FFDE61E081E190E0E2
:100A3000FBDE64E082E190E0F7DE61E083E190E0DC
:100A4000F3DE40E858E361E070E084E190E033DFFA
:100A500040E050E0BA0180E290E02DDF40E050E05D
:100A600060E87FE388E190E04CDF6AE088E890E0AE
:100A7000DBDE60E089E890E0D7DE40E050E060E84F
:100A80007FE388E290E03DDF40E050E060E87FE314
:100A90008CE290E036DF40E050E060E87FE380E306
:100AA00090E02FDF40E050E060E87FE384E390E0F7
:100AB00028DF40E050E060E87FE388E390E021DF5A
:100AC00040E050E060E87FE38CE390E01ADF40E034
:100AD00050E060E87FE380E490E013DF40E050E026
:100AE00060E87FE384E490E00CDF40E050E060E801
:100AF0007FE388E490E005DF40E050E060E87FE3DA
:100B00008CE490E0FEDE40E050E060E87FE380E5CA
:100B100090E0F7DE40E050E060E87FE384E590E0BD
:100B2000F0DE40E050E060E870E088E590E0C3DE91
:100B300040E050E060E870E08CE590E0BCDE40E032
:100B400050E060E870E080E690E0B5DE40E050E024
:100B500060E870E084E690E0AEDE40E050E060E8FF
:100B600070E088E690E0A7DE40E050E060E870E0EA
:100B70008CE690E0A0DE40E050E060E870E080E7C6
:100B800090E099DE40E050E060E870E084E790E0BB
:100B900092DE40E050E060E870E088E790E08BDEB5
:100BA00040E050E060E870E08CE790E084DE40E0F8
:100BB00050E060E870E080E890E07DDE40E050E0EA
:100BC00060E870E084E890E076CE0895CF93DF93FC
:100BD000C5E0D5E04C815D816E817F8188E290E047
:100BE00090DE488959896A897B898CE290E089DEA8
:100BF0004C8D5D8D6E8D7F8D80E390E082DE48A50B
:100C000059A56AA57BA584E390E07BDE4CA95DA98C
:100C10006EA97FA988E390E074DE4091450550916C
:100C2000460560914705709148058CE390E069DEC8
:100C300040915105509152056091530570915405B2
:100C400080E490E05EDE40915D0550915E0560912C
:100C50005F057091600584E490E053DE4091690582
:100C600050916A0560916B0570916C0588E490E085
:100C700048DE409175055091760560917705709139
:100C800078058CE490E03DDE40918105509182052D
:100C9000609183057091840580E590E032DE40919B
:100CA0008D0550918E0560918F057091900584E5BA
:100CB00090E027DEDF91CF910895CF93DF9381E01D
:100CC00090E0BCDDC9E9D5E08C8382E090E0B6DD40
:100CD0008D8383E090E0B2DD8E8384E090E0B7DD29
:100CE0006F83788789879A8788E090E0B0DD6B878B
:100CF0007C878D879E8784E190E0A9DD698B7A8B64
:100D00008B8B9C8B8CE090E099DD8F878DE090E061
:100D100095DD888B8EE090E091DD8D8B8FE090E00B
:100D20008DDD8E8B80E190E089DD8F8B81E190E01D
:100D300085DD888F80E090E081DD8A8F82E190E020
:100D40007DDD898F88E190E00ADE6F8F78A389A32B
:100D50009AA38CE190E072DD8C8F80E290E077DDE9
:100D6000688379838A839B8388E890E067DD8D8F31
:100D700089E890E063DD8E8F80E091E068DD78A700
:100D80006FA384E091E063DD7AA769A788E091E032
:100D90005EDD7CA76BA78CE091E059DD6BA37CA3A3
:100DA0008DA39EA388E290E0DADDC5E0D5E06C83F8
:100DB0007D838E839F838CE290E0D1DD688B798B7D
:100DC0008A8B9B8B80E390E0CADD6C8F7D8F8E8F4A
:100DD0009F8F84E390E0C3DD68A779A78AA79BA7CC
:100DE00088E390E0BCDD6CAB7DAB8EAB9FAB8CE35E
:100DF00090E0B5DD60934505709346058093470507
:100E00009093480580E490E0AADD609351057093CB
:100E10005205809353059093540584E490E09FDD40
:100E200060935D0570935E0580935F059093600508
:100E300088E490E094DD6093690570936A0580937F
:100E40006B0590936C058CE490E089DD60937505EB
:100E500070937605809377059093780580E590E010
:100E60007EDD609381057093820580938305909366
:100E7000840584E590E073DD60938D0570938E05A5
:100E800080938F059093900588E590E0E0DC68877B
:100E900079878A879B878CE590E0D9DC6C8B7D8B8A
:100EA0008E8B9F8B80E690E0D2DC68A379A38AA327
:100EB0009BA384E690E0CBDC6CA77DA78EA79FA7C1
:100EC00088E690E0C4DC68AF79AF8AAF9BAF8CE670
:100ED00090E0BDDC6093490570934A0580934B0513
:100EE00090934C0580E790E0B2DC609355057093D9
:100EF0005605809357059093580584E790E0A7DC4A
:100F00006093610570936205809363059093640517
:100F100088E790E09CDC60936D0570936E0580938C
:100F20006F05909370058CE790E091DC60937905F4
:100F300070937A0580937B0590937C0580E890E020
:100F400086DC609385057093860580938705909372
:100F5000880584E890E07BDC6093910570939205AE
:100F60008093930590939405DF91CF91089560E06D
:100F70008CE190E059DC41E050E060E070E080E01E
:100F800091E099DC41E050E060E070E084E091E0C5
:100F900092DC43E650E060E070E088E091E08BDCBA
:100FA00048E350E96DE070E08CE091E084CC089576
:100FB000CF93DF93C9E9D5E04FA158A560E070E079
:100FC00080E091E078DC49A55AA560E070E084E01B
:100FD00091E071DC4BA55CA560E070E088E091E0F9
:100FE0006ADCDF91CF9108951F920F920FB60F9296
:100FF00011248F939F938091780090917900909322
:101000003F0380933E039F918F910F900FBE0F90EF
:101010001F9018951F920F920FB60F9211240BB6C6
:101020000F922F938F939F93EF93FF9380913C03A5
:1010300090913D03029750F080913C0390913D03C5
:10104000019790933D0380933C035C9A80913C030D
:1010500090913D03019751F480913C0390913D03A1
:10106000019790933D0380933C035C9880914003EB
:10107000882339F080913A0390913B03892B09F43E
:10108000AEC080913A0390913B038031974209F4BE
:101090005C9880913A0390913B0388359B4109F419
:1010A0005C9A80913A0390913B03803D974009F40C
:1010B0005C9880913A0390913B03892B49F0809191
:1010C0003A0390913B03019790933B0380933A033B
:1010D0008091320390913303892B51F08091320338
:1010E000909133030197909333038093320306C0AA
:1010F00088E99AE39093330380933203809132031B
:101100009091330388399A4329F4E9E8F6E0808125
:1011100080618083809132039091330380319742C4
:1011200029F4E9E8F6E080818062808380913203CF
:10113000909133038838934129F4E9E8F6E08081FF
:10114000806480838091380390913903892B49F022
:1011500080913803909139030197909339038093DC
:1011600038038091360390913703892B49F08091A1
:10117000360390913703019790933703809336039A
:101180008091340390913503892B49F08091340389
:1011900090913503019790933503809334038091A8
:1011A000300390913103892B49F080913003909165
:1011B00031030197909331038093300380910002B3
:1011C000863918F48F5F80930002809100028A357F
:1011D00071F41092EF0581E080938F0608C080EBD8
:1011E00096E390933B0380933A035C9A4ACFFF9136
:1011F000EF919F918F912F910F900BBE0F900FBE8B
:101200000F901F9018951F920F920FB60F921124F6
:101210000BB60F922F933F934F935F936F937F93F0
:101220008F939F93AF93BF93EF93FF9380E098EEDC
:10123000909385008093840054D00E94381D0E94B2
:10124000EE1D80912E0390912F03892B49F0809100
:101250002E0390912F03019790932F0380932E03D9
:1012600080910202843618F48F5F8093020280918D
:101270000202833629F41092F10581E080939106F1
:1012800080910102843618F48F5F8093010280916F
:101290000102833629F41092F00581E080939006D4
:1012A000FF91EF91BF91AF919F918F917F916F913E
:1012B0005F914F913F912F910F900BBE0F900FBEFA
:1012C0000F901F90189520913A0330913B03232BE8
:1012D00021F490933D0380933C0308958093400351
:1012E00008958091090180934803809148038F33CA
:1012F00050F48091420390914303019690934303ED
:10130000809342030AC0109243031092420310924A
:10131000460310924503109244039091410380913B
:101320004803981761F01092430310924203109201
:101330004603109247031092450310924403809194
:1013400048038093410380914203909143038C3D75
:10135000910521F480914603882381F0809149030F
:1013600090914A03892B89F08091490390914A0317
:10137000019790934A0380934903089581E08093F5
:10138000460388EE93E09FDFE9CF089590914803EC
:1013900098130AC080914603882341F08091450349
:1013A000882331F080E0089580E0089580E008957A
:1013B00081E08093450384EC99E090934A03809305
:1013C000490381E0089590914803981337C09091A4
:1013D0004603992399F12091490330914A03232B25
:1013E00069F590914403911129C01DC081E080935B
:1013F0004403809147038F5F8093470381E0089502
:1014000080914603882359F08091490390914A03C3
:10141000892B39F480914403811116C0089580E02E
:10142000089580E0089588EC90E090934A038093BB
:101430004903809147038830E1F6D8CF9091480363
:101440008917F1F280E008958AE090E090934A03D2
:101450008093490381E00895CF93DF9380913E0309
:1014600090913F038132934020F084E00E94CE1D92
:1014700003C084E00E94DC1D8091B705882309F435
:101480007BC040914104E42FF0E0EE0FFF1FE35DCD
:10149000FB4F80913E0390913F0391838083209185
:1014A0002B0430912C04EDE2F4E061E474E08191CE
:1014B0009191280F391FE617F707C9F7ADECBCEC7F
:1014C0000E94EA4496958795969587959695879577
:1014D00090932C0480932B044F5F4A3019F0409373
:1014E000410402C010924104813822E0920740F08A
:1014F000209188062223D4F4E8E8F6E02F7B2083AD
:101500008737924098F48091880688237CF486FB84
:10151000882780F991E08927E8E8F6E0908180FB50
:1015200096F9908396FB882780F9D8DE80912B046A
:1015300090912C0484349240F8F480913F0490916F
:101540004004892BC9F0C5E0D1E087E0E3E0F2E098
:10155000ACE8B4E001900D928A95E1F78FEF99E63F
:1015600028E1815090402040E1F700C000008881D0
:101570008F7D8883A598E9CFDF91CF9108958091E1
:10158000870680FD0FC08091890680FD1EC0909166
:10159000880690FD17C02091B505211113C096FD56
:1015A00017C00DC08091890681FF0E94EB1D8091BC
:1015B000890680FD0FC08091880686FD0BC080E003
:1015C0008DCE089581FDF7CFF0CF81FD03C0EDCF23
:1015D00081FFEBCF08953F924F925F926F927F927F
:1015E0008F929F92AF92BF92CF92DF92EF92FF9233
:1015F0000F931F93CF93DF93CDB7DEB7C956D109B1
:101600000FB6F894DEBF0FBECDBF05E015E0F801C0
:1016100084859585A685B785C084D184E284F384CA
:10162000BC01CD016C197D098E099F090E947E4382
:10163000D80114962D913D914D915C9117970E9480
:10164000324420E030E040E05FE30E947B420E94B1
:101650004B43A5966CAF7DAF8EAF9FAFA597F801BA
:10166000808D918DA28DB38DC488D588E688F7884A
:10167000BC01CD016C197D098E099F090E947E4332
:10168000D80150962D913D914D915C9153970E94B8
:10169000324420E030E040E05FE30E947B420E9461
:1016A0004B43A9966CAF7DAF8EAF9FAFA99730909B
:1016B000A805F801C0A0D1A0E2A0F3A084A195A143
:1016C000A6A1B7A12C013D014C185D086E087F084A
:1016D00049A65AA66BA67CA6D801448C558C668C6C
:1016E000778C49825A826B827C82E2E4F4E0408407
:1016F000518462847384498A5A8A6B8A7C8A9C9654
:101700004D915D916D917C919F97D0968D909D901C
:10171000AD90BC90D39724013501441A550A660A4E
:10172000770A4DA65EA66FA678AA98964D905D9012
:101730006D907C909B974D825E826F827886448408
:101740005584668477844D865E866F86788AD896BF
:101750008D919D910D90BC91A02D89A39AA3ABA3CF
:10176000BCA3D801DC968D909D90AD90BC90DF9786
:101770002401350189A19AA1ABA1BCA1481A590A3B
:101780006A0A7B0A49AA5AAA6BAA7CAAD801D496EB
:101790004D905D906D907C90D79749865A866B8668
:1017A0007C864088518862887388498E5A8E6B8EF9
:1017B0007C8E80904D0590904E05A0904F05B09086
:1017C00050050091490510914A0520914B05309133
:1017D0004C0524013501401A510A620A730A4DAAC8
:1017E0005EAA6FAA78AE409045055090460560907D
:1017F00047057090480549AE5AAE6BAE7CAE448842
:101800005588668877884D8A5E8A6F8A788E809040
:10181000590590905A05A0905B05B0905C05009129
:101820005505109156052091570530915805240112
:101830003501401A510A620A730A21964CAE5DAE18
:101840006EAE7FAE2197409051055090520560904A
:1018500053057090540525964CAE5DAE6EAE7FAECE
:101860002597408C518C628C738C8090650590908C
:101870006605A0906705B09068050091610510911C
:1018800062052091630530916405D501C401801B78
:10189000910BA20BB30B29968CAF9DAFAEAFBFAF30
:1018A000299700915D0510915E0520915F053091AB
:1018B00060052D960CAF1DAF2EAF3FAF2D97848DD9
:1018C000958DA68DB78D8D8F9E8FAF8FB8A380908D
:1018D000710590907205A0907305B0907405009109
:1018E0006D0510916E0520916F0530917005D50141
:1018F000C401801B910BA20BB30B61968CAF9DAF03
:10190000AEAFBFAF61970091690510916A05209154
:101910006B0530916C0565960CAF1DAF2EAF3FAFD8
:10192000659780A091A0A2A0B3A000917D05109121
:101930007E0520917F0530918005D901C8018C1961
:101940009D09AE09BF0969968CAF9DAFAEAFBFAF21
:101950006997C4A0D5A0E6A0F7A0009189051091D1
:101960008A0520918B0530918C05D901C801841B13
:10197000950BA60BB70B6D968CAF9DAFAEAFBFAFFF
:101980006D9700A511A522A533A50DA31EA32FA316
:1019900038A74091950550919605609197057091F3
:1019A0009805DB01CA0109A11AA12BA13CA1801B4A
:1019B000910BA20BB30BA1968CAF9DAFAEAFBFAF97
:1019C000A19724A535A546A557A529A33AA34BA3BE
:1019D0005CA3AA963FAEAA97AA960FADAA9702302B
:1019E00009F073C0E2E4F4E029893A894B895C8903
:1019F00020873187428753878D859E85AF85B8893B
:101A000084879587A687B787098D1A8D2B8D3C8D86
:101A1000008B118B228B338B2D893E894F89588DFA
:101A2000248B358B468B578B408E518E628E738EF6
:101A30004D8C5E8C6F8C78A0448E558E668E778E22
:101A400080A291A2A2A2B3A2C4A2D5A2E6A2F7A2AA
:101A50004DA05EA06FA078A440A651A662A673A672
:101A600049A05AA06BA07CA044A655A666A677A65E
:101A7000A5964CAC5DAC6EAC7FACA5974082518214
:101A800062827382A9964CAC5DAC6EAC7FACA997B8
:101A90004482558266827782A5964CAC5DAC6EAC72
:101AA0007FACA597A9960CAD1DAD2EAD3FADA99706
:101AB000400E511E621E731E40927A0450927B04A7
:101AC00060927C0470927D04FEC369A57AA58BA503
:101AD0009CA50E947E4329813A814B815C810E94B2
:101AE000324420E030E040E05FE30E947B420E940D
:101AF0004B43698B7A8B8B8B9C8B6DA57EA58FA5B9
:101B000098A90E947E432D813E814F8158850E9475
:101B1000324420E030E040E05FE30E947B420E94DC
:101B20004B436D877E878F87988BAA961FADAA97A8
:101B3000143009F07DC0E2E4F4E029893A894B8948
:101B40005C892087318742875387DC01CB018487FA
:101B50009587A687B787098D1A8D2B8D3C8D008BB5
:101B6000118B228B338B2D893E894F89588D248B85
:101B7000358B468B578B408E518E628E738E4D8C7B
:101B80005E8C6F8C78A0448E558E668E778E80A288
:101B900091A2A2A2B3A2C4A2D5A2E6A2F7A24DA08E
:101BA0005EA06FA078A440A651A662A673A649A025
:101BB0005AA06BA07CA044A655A666A677A6A596BB
:101BC0004CAC5DAC6EAC7FACA5974082518262821A
:101BD0007382A9964CAC5DAC6EAC7FACA997448285
:101BE000558266827782A5964CAC5DAC6EAC7FACBC
:101BF000A597A9960CAD1DAD2EAD3FADA997400E92
:101C0000511E621E731E29893A894B895C89420ED6
:101C1000531E641E751E480E591E6A1E7B1E40927E
:101C20007A0450927B0460927C0470927D044BC3D2
:101C300069A97AA98BA99CA90E947E4329853A8526
:101C40004B855C850E94324420E030E040E05FE359
:101C50000E947B420E944B43698F7A8F8B8F9C8FAF
:101C60006DA97EA98FA998AD0E947E4329AD3AAD9A
:101C70004BAD5CAD0E94324420E030E040E05FE3D9
:101C80000E947B420E944B436D8B7E8B8F8B988F83
:101C9000AA960FADAA97063009F08FC0E2E4F4E0EF
:101CA00029893A894B895C89208731874287538704
:101CB0008D859E85AF85B88984879587A687B787E8
:101CC000098D1A8D2B8D3C8D008B118B228B338BC4
:101CD0002D893E894F89588D248B358B468B578BA8
:101CE000408E518E628E738E4D8C5E8C6F8C78A080
:101CF000448E558E668E778E80A291A2A2A2B3A248
:101D0000C4A2D5A2E6A2F7A24DA05EA06FA078A4BF
:101D100040A651A662A673A649A05AA06BA07CA0BB
:101D200044A655A666A677A6A5964CAC5DAC6EAC4F
:101D30007FACA5974082518262827382A9964CAC97
:101D40005DAC6EAC7FACA997448255826682778287
:101D5000A5964CAC5DAC6EAC7FACA597A9960CADCE
:101D60001DAD2EAD3FADA997400E511E621E731ED4
:101D700029893A894B895C89420E531E641E751E5F
:101D8000480E591E6A1E7B1E898D9A8DAB8DBC8DA7
:101D9000480E591E6A1E7B1E0D891E892F89388D9B
:101DA000400E511E621E731E40927A0450927B04B4
:101DB00060927C0470927D0486C221966CAD7DADEC
:101DC0008EAD9FAD21970E947E4325962CAD3DADF3
:101DD0004EAD5FAD25970E94324420E030E040E0F8
:101DE0005FE30E947B420E944B432B013C012996FA
:101DF0006CAD7DAD8EAD9FAD29970E947E432D9633
:101E00002CAD3DAD4EAD5FAD2D970E94324420E02C
:101E100030E040E05FE30E947B420E944B436D8FC5
:101E20007E8F8F8F98A3AA961FADAA97183009F0BE
:101E300093C0E2E4F4E029893A894B895C892087E0
:101E40003187428753878D859E85AF85B889848782
:101E50009587A687B787098D1A8D2B8D3C8D008BB2
:101E6000118B228B338B2D893E894F89588D248B82
:101E7000358B468B578B408E518E628E738E8D8D37
:101E80009E8DAF8DB8A1848F958FA68FB78F80A2BE
:101E900091A2A2A2B3A2C4A2D5A2E6A2F7A20DA1CA
:101EA0001EA12FA138A500A711A722A733A729A1FA
:101EB0003AA14BA15CA124A735A746A757A7A59691
:101EC0008CAD9DADAEADBFADA59780839183A28350
:101ED000B383A9960CAD1DAD2EAD3FADA99704837C
:101EE000158326833783800F911FA21FB31F298973
:101EF0003A894B895C89820F931FA41FB51F0D85FA
:101F00001E852F853889800F911FA21FB31F298D31
:101F10003A8D4B8D5C8D820F931FA41FB51F0D89C9
:101F20001E892F89388D800F911FA21FB31F840D2A
:101F3000951DA61DB71D4D8C5E8C6F8C78A0840DF1
:101F4000951DA61DB71D80937A0490937B04A093E2
:101F50007C04B0937D04B7C161966CAD7DAD8EAD50
:101F60009FAD61970E947E4365962CAD3DAD4EAD11
:101F70005FAD65970E94324420E030E040E05FE3CF
:101F80000E947B420E944B434B015C0169966CAD01
:101F90007DAD8EAD9FAD69970E947E4329813A81C8
:101FA0004B815C810E94324420E030E040E05FE3FE
:101FB0000E947B420E944B436B017C01AA960FADAD
:101FC000AA970A3009F09BC0E2E4F4E029893A8933
:101FD0004B895C8920873187428753878D859E8511
:101FE000AF85B88984879587A687B787098D1A8DAD
:101FF0002B8D3C8D008B118B228B338B2D893E8951
:102000004F89588D248B358B468B578B408E518E44
:10201000628E738E8D8D9E8DAF8DB8A1848F958FBE
:10202000A68FB78F80A291A2A2A2B3A2C4A2D5A26A
:10203000E6A2F7A20DA11EA12FA138A500A711A706
:1020400022A733A729A13AA14BA15CA124A735A7B8
:1020500046A757A7A5968CAD9DADAEADBFADA597D4
:1020600080839183A283B383A9960CAD1DAD2EAD61
:102070003FADA9970483158326833783800F911F73
:10208000A21FB31F29893A894B895C89820F931F4C
:10209000A41FB51F0D851E852F853889800F911FC0
:1020A000A21FB31F298D3A8D4B8D5C8D820F931F1C
:1020B000A41FB51F0D891E892F89388D800F911F90
:1020C000A21FB31F840D951DA61DB71D4D8C5E8CE0
:1020D0006F8C78A0840D951DA61DB71D880E991EC6
:1020E000AA1EBB1EC80CD91CEA1CFB1CC0927A0499
:1020F000D0927B04E0927C04F0927D04E4C06D9663
:102100006CAD7DAD8EAD9FAD6D970E947E432D81F0
:102110003E814F8158850E94324420E030E040E00B
:102120005FE30E947B420E944B436DA37EA38FA37B
:1021300098A7A1966CAD7DAD8EAD9FADA1970E9485
:102140007E4329853A854B855C850E94324420E098
:1021500030E040E05FE30E947B420E944B4369A372
:102160007AA38BA39CA3AA960FADAA970C3009F073
:1021700033CCE2E4F4E029893A894B895C892087F1
:102180003187428753878D859E85AF85B88984873F
:102190009587A687B787098D1A8D2B8D3C8D008B6F
:1021A000118B228B338B2D893E894F89588D248B3F
:1021B000358B468B578B408E518E628E738E8D8DF4
:1021C0009E8DAF8DB8A1848F958FA68FB78F80A27B
:1021D00091A2A2A2B3A2C4A2D5A2E6A2F7A20DA187
:1021E0001EA12FA138A500A711A722A733A729A1B7
:1021F0003AA14BA15CA124A735A746A757A7A5964E
:102200008CAD9DADAEADBFADA59780839183A2830C
:10221000B383A9960CAD1DAD2EAD3FADA997048338
:10222000158326833783800F911FA21FB31F29892F
:102230003A894B895C89820F931FA41FB51F0D85B6
:102240001E852F853889800F911FA21FB31F298DEE
:102250003A8D4B8D5C8D820F931FA41FB51F0D8986
:102260001E892F89388D800F911FA21FB31F480E22
:10227000591E6A1E7B1E2D8D3E8D4F8D58A1420E1C
:10228000531E641E751E480C591C6A1C7B1CC40C12
:10229000D51CE61CF71C4DA05EA06FA078A4C40C52
:1022A000D51CE61CF71C49A05AA06BA07CA0C40C4E
:1022B000D51CE61CF71CC0927A04D0927B04E092F5
:1022C0007C04F0927D04C759DF4F0FB6F894DEBF4F
:1022D0000FBECDBFDF91CF911F910F91FF90EF9077
:1022E000DF90CF90BF90AF909F908F907F906F9036
:1022F0005F904F903F9008950F931F93CF93DF937C
:10230000E5E0F5E04485558566857785408751870A
:1023100062877387008D118D228D338D048B158B11
:10232000268B378B04A115A126A137A100A311A3E9
:1023300022A333A300A911A922A933A904A715A791
:1023400026A737A704AD15AD26AD37AD00AF11AF49
:1023500022AF33AF00914D0510914E0520914F05EE
:10236000309150050093490510934A0520934B0581
:1023700030934C050091590510915A0520915B0549
:1023800030915C0500935505109356052093570531
:1023900030935805009165051091660520916705F9
:1023A00030916805009361051093620520936305E1
:1023B00030936405009171051091720520917305A9
:1023C0003091740500936D0510936E0520936F0591
:1023D0003093700500917D0510917E0520917F0559
:1023E000309180050093790510937A0520937B0541
:1023F00030937C050091890510918A0520918B0509
:1024000030918C05009385051093860520938705F0
:1024100030938805009195051091960520919705B8
:1024200030919805009391051093920520939305A0
:1024300030939405882309F47AC088E590E00E94DF
:102440005B04C5E0D5E04C895D896E897F898CE5A8
:1024500090E00E945B0448A159A16AA17BA180E69B
:1024600090E00E945B044CA55DA56EA57FA584E667
:1024700090E00E945B0448AD59AD6AAD7BAD88E643
:1024800090E00E945B044091490550914A0560919B
:102490004B0570914C058CE690E00E945B044091E6
:1024A000550550915605609157057091580580E784
:1024B00090E00E945B04409161055091620560913B
:1024C00063057091640584E790E00E945B0440918D
:1024D0006D0550916E0560916F057091700588E7EC
:1024E00090E00E945B044091790550917A056091DB
:1024F0007B0570917C058CE790E00E945B04409125
:10250000850550918605609187057091880580E862
:1025100090E00E945B04409191055091920560917A
:1025200093057091940584E890E00E945B04DF912C
:10253000CF911F910F9108952091C4053091C50549
:102540008091E6059091E7058217930710F120919D
:10255000C2053091C3058091E4059091E50582178D
:102560009307B8F02091C0053091C1058091E20534
:102570009091E3058217930760F08091B505811172
:1025800008C081E08093B50561E08CE190E00C9497
:10259000140408958F929F92AF92BF92CF92DF92D0
:1025A000EF92FF920F931F93CF93C42F4130B1F15D
:1025B000C42ED12CE12CF12CA70196010E94A44439
:1025C0004B015C01C701B6010E9495444C2F469512
:1025D000042F10E020E030E080169106A206B3063A
:1025E00048F460935D0370935E0380935F03909360
:1025F00060030CC0C60ED71EE81EF91EC0925D0314
:10260000D0925E03E0925F03F092600360915D03FD
:1026100070915E0380915F0390916003CF911F9151
:102620000F91FF90EF90DF90CF90BF90AF909F9071
:102630008F900895CF92DF92EF92FF920F931F93A6
:10264000CF93DF93182F80918A0683FF64C3EAE853
:10265000F6E0877F80830E94EB0A60917A04709194
:102660007B0480917C0490917D040E947E432091A4
:10267000B8053091B9054091BA055091BB050E944B
:10268000324420E030E040E05FE30E947B420E9461
:102690004B4360937A0470937B0480937C04909303
:1026A0007D0420912A04E22FF0E0EE0FFF1FEE0FD1
:1026B000FF1FEE59FC4F608371838283938381E017
:1026C000820F811718F480932A0402C010922A0402
:1026D0001092720410927304109274041092750494
:1026E000112301F1E2E6F3E0C12FD0E0CC0FDD1FB2
:1026F000CC0FDD1FCE59DC4F80E090E0DC01419132
:10270000519161917191840F951FA61FB71FEC170E
:10271000FD07A9F78093720490937304A093740447
:10272000B0937504212F30E040E050E060917204D6
:102730007091730480917404909175040E94C64452
:10274000209372043093730440937404509375047F
:102750008091870684FF1AC0809105059091060537
:10276000A0910705B091080579018A01E81AF90AD4
:102770000A0B1B0BE0927204F09273040093740432
:102780001093750481E00E94CE1D0BC081E00E9471
:10279000DC1D109205051092060510920705109297
:1027A00008058091A0059091A105A091A205B09186
:1027B000A3050097A105B10509F00FC48091A405F8
:1027C0009091A505A091A605B091A705892B8A2B0C
:1027D0008B2B09F020C4C9E9D5E060917204709197
:1027E000730480917404909175044C81D3DE8B0145
:1027F0009C016093720470937304809374049093AB
:10280000750481E0809361038F819885A985BA85DD
:10281000081719072A073B07A4F4892B8A2B8B2B4F
:1028200081F040919D05C901B801B4DE6093720446
:1028300070937304809374049093750481E0809383
:10284000610360917204709173048091740490919B
:1028500075040091A0051091A1052091A205309169
:10286000A30506171707280739070CF054C0009175
:10287000A4051091A5052091A6053091A705012B6F
:10288000022B032B09F0B8C3C9E9D5E04D8182DEE4
:10289000609372047093730480937404909375042E
:1028A00022E0209361030F81188529853A85061758
:1028B0001707280739070CF0C4C30091A40510912D
:1028C000A5052091A6053091A7056017710782071D
:1028D00093070CF5012B022B032B09F446C0C9E921
:1028E000D5E04D8157DE8B019C016093720470939B
:1028F0007304809374049093750482E08093610361
:102900008B859C85AD85BE8580179107A207B3078F
:102910000CF0D0C0ADC38091A4059091A505A09105
:10292000A605B091A705009172041091730420913F
:1029300074043091750480179107A207B307ACF4B3
:10294000892B8A2B8B2B89F040919F05C901B801F7
:1029500021DE6093720470937304809374049093E7
:10296000750483E0809361033FC1809161038230ED
:1029700009F4A0C0833009F437C1813009F0CBC11C
:10298000E9E9F5E0248130E0C0907204D09073044E
:10299000E0907404F0907504C901880F991F880FA6
:1029A000991F880F991F820F931F092E000CAA0BE5
:1029B000BB0B4189528963897489840F951FA61FB7
:1029C000B71F40910505509106056091070570916C
:1029D00008054C0D5D1D6E1D7F1D84179507A6070C
:1029E000B70734F4E9E8F6E080818160808305C0B0
:1029F000E9E8F6E080818E7F8083809130039091BA
:102A00003103892B09F087C18091870680FD36C389
:102A1000C901880F991F092E000CAA0BBB0B40910E
:102A200076045091770460917804709179048C0158
:102A30009D01040F151F261F371FC016D106E20681
:102A4000F30694F4481B590B6A0B7B0B4C155D0580
:102A50006E057F054CF483E00E94CE1DE9E8F6E0A8
:102A600080818860808308C083E00E94DC1DE9E8E3
:102A7000F6E08081877F80834091B60528EE33E0C1
:102A8000429FC001439F900D112490933103809386
:102A900030038091720490917304A0917404B091FA
:102AA00075048093760490937704A0937804B09390
:102AB000790431C1E9E9F5E0258130E0C090720484
:102AC000D0907304E0907404F0907504C901880FED
:102AD000991F880F991F880F991F820F931F092E26
:102AE000000CAA0BBB0B4189528963897489840F3E
:102AF000951FA61FB71F40910505509106056091CF
:102B00000705709108054C0D5D1D6E1D7F1D841716
:102B10009507A607B70734F4E9E8F6E080818160FD
:102B2000808305C0E9E8F6E080818E7F8083809114
:102B3000300390913103892B09F0EDC08091870615
:102B400080FD9CC2C901880F991F092E000CAA0B99
:102B5000BB0B40917604509177046091780470919A
:102B600079048C019D01040F151F261F371FC01605
:102B7000D106E206F30694F4481B590B6A0B7B0B53
:102B80004C155D056E057F054CF483E00E94CE1D5B
:102B9000E9E8F6E080818860808308C083E00E94D5
:102BA000DC1DE9E8F6E08081877F80834091B605EF
:102BB00028EE33E0429FC001439F900D1124909373
:102BC0003103809330038091720490917304A0913B
:102BD0007404B09175048093760490937704A09365
:102BE0007804B093790497C0E9E9F5E0268130E0F4
:102BF000C0907204D0907304E0907404F090750457
:102C0000C901880F991F880F991F880F991F820F7C
:102C1000931F092E000CAA0BBB0B418952896389B3
:102C20007489840F951FA61FB71F40910505509109
:102C3000060560910705709108054C0D5D1D6E1D20
:102C40007F1D84179507A607B70734F4E9E8F6E077
:102C500080818160808305C0E9E8F6E080818E7F15
:102C600080838091300390913103892B09F053C008
:102C70008091870680FD02C2C901880F991F092E25
:102C8000000CAA0BBB0B4091760450917704609125
:102C90007804709179048C019D01040F151F261F83
:102CA000371FC016D106E206F3068CF4481B590BF9
:102CB0006A0B7B0B4C155D056E057F0544F483E0C4
:102CC0006DD7E9E8F6E080818860808307C083E003
:102CD00073D7E9E8F6E08081877F80834091B6056D
:102CE00028EE33E0429FC001439F900D1124909342
:102CF0003103809330038091720490917304A0910A
:102D00007404B09175048093760490937704A09333
:102D10007804B09379048091890680FF0FC0809178
:102D2000870680FD1EC0EFEEF2E0659174918CE89D
:102D300094E00E94044681E00E946E098091720432
:102D400090917304A0917404B0917504892B8A2B1F
:102D50008B2B39F48091870680FD03C082E01ED75B
:102D600002C082E029D78091870680FD2FC0809124
:102D7000890680FD8DC18091880688230CF088C16A
:102D8000809175048F93809174048F938091730464
:102D90008F93809172048F938AE092E09F938F9338
:102DA0008CE894E09F938F930E94794610927E0462
:102DB000809187060DB71EB7085F1F4F0FB6F894B6
:102DC0001EBF0FBE0DBF80FD5EC162C1809188062F
:102DD00088230CF05DC1E0917E048E2F90E0FC0111
:102DE0003197EC30F10508F0D9C08827EE58FF4F35
:102DF0008F4F0C94E2448091A805882321F08091A4
:102E00008B0680FDD2C0E1E4F3E0659174918CE81B
:102E100094E00E940446C2C08091A805823020F050
:102E200080918B0681FDC1C0E3E4F3E0659174916C
:102E30008CE894E00E940446B1C08091A8058330DC
:102E400020F080918B0682FDB0C0E5E4F3E065914F
:102E500074918CE894E00E940446A0C08091A8057B
:102E6000843020F080918B0683FD9FC0E7E4F3E07F
:102E7000659174918CE894E00E9404468FC0809123
:102E8000A805853020F080918B0684FD8EC0E9E492
:102E9000F3E0659174918CE894E00E9404467EC052
:102EA0008091A805863020F080918B0685FD7DC03D
:102EB000EBE4F3E0659174918CE894E00E940446A1
:102EC0006DC08091A805873020F080918B0686FD2B
:102ED0006CC0EDE4F3E0659174918CE894E00E949D
:102EE00004465CC08091A805883020F080918B0654
:102EF00087FD5BC0EFE4F3E0659174918CE894E0AA
:102F00000E9404464BC08091A805893030F0809122
:102F10008B0690918C0690FD48C0E1E5F3E0659149
:102F200074918CE894E00E94044638C08091A80512
:102F30008A3030F080918B0690918C0691FD35C0DF
:102F4000E3E5F3E0659174918CE894E00E94044617
:102F500025C08091A8058B3030F080918B06909130
:102F60008C0692FD22C0E5E5F3E0659174918CE852
:102F700094E00E94044612C08091A8058C3030F085
:102F800080918B0690918C0693FD0FC0E7E5F3E0EE
:102F9000659174918CE894E00E94044680912E0320
:102FA00090912F03892B09F073C088E893E19093E7
:102FB0002F0380932E0380917E049091A80589179A
:102FC00020F48F5F80937E0403C081E080937E04B1
:102FD00088EE93E00E9463095BC000917204109137
:102FE00073042091740430917504081719072A0797
:102FF0003B070CF026CC15CC0091A4051091A5053B
:103000002091A6053091A7056017710782079307E5
:103010000CF081CC64CC6091720470917304809147
:103020007404909175040091A0051091A105209160
:10303000A2053091A3050617170728073907E4F200
:103040006ACC8091A4059091A505A091A605B091A8
:10305000A7050091720410917304209174043091BB
:10306000750480179107A207B3070CF469CC22CD31
:10307000892B8A2B8B2B09F41DCD66CC8091890678
:1030800080FD6FCE5BCE8091880688230CF486CFBE
:10309000DF91CF911F910F91FF90EF90DF90CF9034
:1030A0000895CF92DF92EF92FF920F931F93CF93E9
:1030B000DF9300D01F92CDB7DEB76B017C0199235F
:1030C0003CF4CC24DD247601C61AD70AE80AF90AB2
:1030D0004C2D0C2D1D2D2E2D3F2DDC01CB018827D5
:1030E000B7FD83959927AA27BB27682F660F660F20
:1030F000660F20FD02C080E001C080E4682B21FD46
:1031000002C080E001C080E8682B69831A834B838A
:1031100084E28C83CE0101960E94093E0F900F90AD
:103120000F900F90DF91CF911F910F91FF90EF9033
:10313000DF90CF9008958FE884B985E085B980E16C
:103140008AB91BB880E2809304011092050183BB09
:1031500014BA10920A018FE380930B0181E58CBDB4
:103160008CB580688CBD289A80E480937C008FEEBB
:1031700080937A0081E080937E0085BD80936E000D
:103180008093810080936F000E948B330E949C3358
:103190000E94A9332F9A0895E3E0F1E080915B0348
:1031A00090915C03883E23E09207C1F0208126FDC8
:1031B00010C0883E23E0920728F4019690935C03A8
:1031C00080935B038FE99FE00197F1F700C0000057
:1031D000E5CF10925C0310925B03E0CFE5E0F1E0F5
:1031E000808180628083A59A0895EF92FF921F9359
:1031F000CF93DF93CCE8D4E00F2EF3E9EF2EF4E089
:10320000FF2EF02D1FE719935C9A2FEF80E792E0D5
:10321000215080409040E1F700C000005C980CD441
:103220002FEF80E792E0215080409040E1F700C00E
:103230000000CE15DF0539F72FEF89E698E1215020
:1032400080409040E1F700C00000ECE8F4E010821C
:1032500011821282138214821582DF91CF911F9105
:10326000FF90EF9008958091030186FF05C0809143
:1032700087068823A4F543C08091030186FD35C0ED
:103280008091870688238CF533C08F5F80935A0323
:10329000813021F480E197E20E94630980915A0312
:1032A000863090F187E0E3E0F2E0ACE8B4E0019032
:1032B0000D928A95E1F780E197E20E946309E5E0CB
:1032C000F1E080818F7D8083A59887E0E3E0F2E0E4
:1032D000ACE8B4E001900D928A95E1F7F6CFE7E80B
:1032E000F6E0808180688083C7CF10925A030895EA
:1032F00080915A03863048F28130A1F6CBCF80917D
:10330000030186FFF5CFF1CF0895EF92FF920F935F
:103310001F93CF93DF938091090183FDD4C082E096
:1033200080935903809158038F93809157038F9313
:10333000809156038F93809155038F938FE092E095
:103340009F938F938BE493E09F938F930E94794692
:103350002DB73EB7285F3F4F0FB6F8943EBF0FBE64
:103360002DBF0F2EF0E3FF2EF02D0F2EF9E3EF2EE1
:10337000F02D05E112E0CCE8D4E08FE20E94C6090E
:10338000882339F080915903853018F48F5F80933A
:10339000590387E30E94C609882339F080915903B5
:1033A000833018F08150809359038EE30E94C60940
:1033B0008823D1F08091590390E0FC01E55BFC4F3C
:1033C0002081422F50E0405351094930510534F4D7
:1033D000FC01E55BFC4F2F5F208306C0293321F4FD
:1033E000FC01E55BFC4FF0828FE10E94C609882357
:1033F000D1F08091590390E0FC01E55BFC4F208106
:10340000422F50E0405351091416150634F4FC01C4
:10341000E55BFC4F2150208306C0203321F4FC01E2
:10342000E55BFC4FE0828BE493E00E9406456093ED
:1034300055037093560380935703909358039F93BB
:103440008F937F936F931F930F93DF93CF930E947C
:103450007946809159037FD38BE30E94C6092DB72B
:103460003EB7285F3F4F0FB6F8943EBF0FBE2DBF4B
:10347000882319F18091550390915603A091570329
:10348000B0915803853634E09307A105B10531F4B6
:103490000E94E30488E00E94C12415C0873592424F
:1034A000A105B10531F40E94B70788E00E94C1244C
:1034B0000AC085E00E94C12406C08DE30E94C609AF
:1034C000882309F45ACFDF91CF911F910F91FF907C
:1034D000EF90089589D2E9E9F5E0668985890E942F
:1034E000BC3310927E0480E49FE190932F0380937D
:1034F0002E0383E080937F0408951DDE64D2ECE800
:10350000F4E083E994E011928E179F07E1F794D2DB
:1035100043DE6BDE0E94253278940E946D33F5DE27
:103520000E945D06D7DF08E816E0C9E8D6E00F2E56
:10353000F9E9EF2EF5E0FF2EF02D0F2EF7E8CF2E54
:10354000F6E0DF2EF02D0F2EFAED8F2EF5E09F2EF8
:10355000F02D0F2EFAE8AF2EF6E0BF2EF02D0F2E35
:10356000F5E06F2EF5E07F2EF02DF801808180FDD3
:10357000FAC1888184FF13C08F7E8883F601808121
:1035800080FD0DC0F701848D811109C06091720426
:1035900070917304809174049091750482DD888128
:1035A00085FF07C08F7D88830E9415335CDE0E94F3
:1035B0003E34888186FF08C08F7B88830E942C0A56
:1035C0000E949C120E941036F70187850E94A9373D
:1035D0008FE10E94C609882351F080917F048230D8
:1035E00020F48F5F80937F0402C010927F048EE3EB
:1035F0000E94C609882359F080917F04882321F016
:10360000815080937F0403C082E080937F048BE32A
:103610000E94C609882331F0F8018081816080838F
:103620000E94BA24F601808180FD0FC18FE20E94C2
:10363000C609811104C0F501808181FF1FC0F60118
:103640008081282F207184FD0DC08091720490919B
:103650007304A0917404B0917504F3018083918385
:10366000A283B38391E0211190E0F601808190FB69
:1036700084F98083F50180818D7F808387E30E94B8
:10368000C609811104C0F501808182FFA0C0F60146
:10369000808185FD52C0F70181899289A389B4890F
:1036A000BB231CF40396A11DB11DB595A795979555
:1036B0008795B595A79597958795F30120803180DB
:1036C000428053804091720450917304609174045D
:1036D00070917504420D531D641D751D1A012B0157
:1036E00077233CF4222433242101241A350A460A84
:1036F000570A281639064A065B06A4F480E00E94A1
:103700007C11F60180818062808388818F77888335
:10371000F501808181608083F30110821182128221
:10372000138251C089E00E94C12488818068888307
:10373000F50180818E7F808346C0F701618972899F
:103740008389948929E130E040E050E00E94C6443A
:10375000F3012080318042805380809172049091E7
:103760007304A0917404B0917504820D931DA41D7F
:10377000B51D1C012D01BB233CF42224332421015F
:10378000281A390A4A0A5B0A2216330644065506E5
:1037900084F480E00E947C1188818F778883F50112
:1037A000808181608083F3011082118212821382F2
:1037B0000AC089E00E94C124888180688883F5015D
:1037C00080818E7F8083F50180818B7F8083F601ED
:1037D000808186FD3AC0F701938D9923B1F1F501FF
:1037E000908193FF32C085FD30C0F70181899289B5
:1037F000A389B489BB231CF40396A11DB11DB59503
:10380000A79597958795B595A79597958795409195
:10381000720450917304609174047091750477235D
:103820003CF470956095509541955F4F6F4F7F4F79
:10383000481759076A077B071CF480E00E947C1137
:10384000F6018081806280648083F701848D81111C
:1038500091C0F801808186FD71C080917F04813024
:1038600061F030F0823061F1833009F44CC077C0F0
:10387000F701818D0E941A1372C0F40181818F9328
:1038800080818F9383818F9382818F9385818F93A2
:1038900084818F938DE192E09F938F938CE894E0E5
:1038A0009F938F930E94794680E00E946E098DB7A6
:1038B0009EB70A960FB6F8949EBF0FBE8DBF4FC03D
:1038C000F40185858F9384858F9383858F9382857B
:1038D0008F9381858F9380858F938DE192E09F9365
:1038E0008F938CE894E09F938F930E94794680E0B9
:1038F0000E946E098DB79EB70A960FB6F8949EBFC8
:103900000FBE8DBF2CC080912E0390912F03892B69
:1039100031F410927F04F801808180688083E9E5AA
:10392000F3E0659174918CE894E00E9404460E9453
:103930002C0AF701818D0E941A1311C0E1E0F3E017
:10394000659174918CE894E00E94044608C0EBEF06
:10395000F2E0659174918CE894E00E940446F801CD
:10396000808180FF04C098D580E00E946E090E948B
:10397000BF0AFBCDF801808186FDE0CFE8CF9091B2
:10398000A00491111FC0E9E8F6E090819460908353
:103990009CB59F779CBD28988EBD0DB407FEFDCFCA
:1039A0006EBD0DB407FEFDCF8EB580939604289AA8
:1039B0001092A304E9E8F6E080818B7F80838CB5C8
:1039C00080688CBD0895000060E08FE0D8DF61E082
:1039D0008CE0D5DF6FE08AE0D2DF60E089E0CFDF06
:1039E00066E08BE0CCCF08958091B305813061F023
:1039F00018F0823089F018C08091A00481111BC09A
:103A000064E08AE0BCCF08958091A004811113C0C6
:103A100067E08AE0B4CF08958091A00481110BC0C3
:103A20006FE08AE0ACCF08958091A004811103C0BB
:103A30006FE08AE0A4CF0895CF93DF93CCE8D4E081
:103A40006C8181E09CDF688182E099DF6B8183E09B
:103A500096DF6A8184E093DF6D8185E090DF698184
:103A600086E08DDF6E8187E08ADFDF91CF91089558
:103A700010928104E2E8F4E0108211821282138233
:103A800014821582E0918C04EE2309F455C021E0E4
:103A900030E040E050E060E00DC0FC01E457FB4F37
:103AA000E0814F5F5F4F2F5F3F4FE11103C0609395
:103AB000810442C0EE32B9F4CA011416150644F46A
:103AC000E62FF0E0EF57FB4F8081806880831BC0BA
:103AD000892B49F4E62FF0E0EE57FB4F8081806898
:103AE0008083C901DACF862F90E0F0E0ED55FC4FDE
:103AF000E491DC01AE57BB4FEC93653018F0609356
:103B000081041AC06F5FC9012A30310534F2609315
:103B1000810412C09A01082E02C0359527950A9497
:103B2000E2F720FF04C0FC01EE57FB4F1082019624
:103B30008630910579F70895809138039091390383
:103B400001978838934130F44091A10450E080E01F
:103B500090E0E0CF089591E001C0990F8A95EAF7CF
:103B60009093A1048091380390913903892B31F40B
:103B700080E197E290933903809338030895209170
:103B8000380330913903232B31F420E137E23093AD
:103B90003903209338038093A1040895E82FF0E0BF
:103BA000ED53FC4FE491A2E8B4E016968C91169781
:103BB000E82B1696EC930895E82FF0E0ED53FC4FB8
:103BC000E491A2E8B4E016968C911697E095E8236C
:103BD0001696EC9308951092880408958091A0049D
:103BE000811165C08091890682FF51C008951092AD
:103BF000A304289881E08EBD809186048093A2045E
:103C00003BC01092A304289882E08EBD809182046C
:103C10008093A20431C01092A304289883E08EBD43
:103C2000809185048093A20427C01092A304289851
:103C300084E08EBD809184048093A2041DC0109204
:103C4000A304289885E08EBD809187048093A20408
:103C500013C01092A304289886E08EBD809183043F
:103C60008093A20409C01092A304289887E08EBD17
:103C7000809188048093A204809180048F5F8730B4
:103C800018F480938004089510928004089581E0D0
:103C90008093A0048091800490E08730910560F7C4
:103CA000FC018827E258FF4F8F4F0C94E24408959F
:103CB0001F920F920FB60F9211248F938091A3043D
:103CC000811107C08091A2048EBD81E08093A3047E
:103CD00003C0289A1092A0048F910F900FBE0F90EE
:103CE0001F901895089588E0EDE2F2E0ACE8B4E0AA
:103CF00001900D928A95E1F70895FF920F931F931B
:103D0000CF93DF938091360390913703892B09F08D
:103D100080C0F0900005CF2DD0E0CC0FDD1FCC0F80
:103D2000DD1FC852DB4F60913E0370913F0380E07E
:103D300090E00E947C4320E030E04EE852E40E9494
:103D4000E342688379838A839B836091D404709172
:103D5000D5048091D6049091D704C8EDD4E000E05A
:103D600015E029913991499159910E947B42C017E0
:103D7000D107B9F720E030E040E251E40E94E3428D
:103D8000362FE72F462F572F682F792F4093D404D3
:103D90005093D5046093D6047093D70421E02F0D7F
:103DA0002A3019F02093000502C0109200059F935D
:103DB0008F93EF933F9385E392E09F938F938CE8EB
:103DC00094E09F938F930E9479468DB79EB7089693
:103DD0000FB6F8949EBF0FBE8DBF20E030E0A90162
:103DE0006091FC047091FD048091FE049091FF04A9
:103DF0000E94DF42811107C084EF91E09093370366
:103E00008093360306C088E893E19093370380934C
:103E10003603DF91CF911F910F91FF900895E9E94B
:103E2000F5E083818F9382818F9381818F9380814D
:103E30008F938FE092E09F938F938CE894E09F9311
:103E40008F930E9479468DB79EB708960FB6F89467
:103E50009EBF0FBE8DBF0895CF93DF938091D8058D
:103E600081112AC08BE30E94C609882319F081E0E2
:103E70008093D805C9E9D5E08A8D1F921F921F92C1
:103E80008F938FE392E09F938F938CE894E09F93BE
:103E90008F930E9479468A8D8093D4052DB73EB7C3
:103EA000285F3F4F0FB6F8943EBF0FBE2DBF8091E5
:103EB000D805882309F45DC08EE30E94C6098823D3
:103EC00039F08091D405823018F48F5F8093D40547
:103ED0008FE10E94C609882339F08091D405882398
:103EE00019F081508093D40585E035DE8091D405AA
:103EF0001F921F921F928F938FE392E09F938F9355
:103F00008CE894E09F938F930E9479468BE30E9404
:103F1000C6092DB73EB7285F3F4F0FB6F8943EBF96
:103F20000FBE2DBF882329F18091D4058093B3055E
:103F30001092D8051092D705813061F018F08230C8
:103F400089F017C08091A004811113C064E08AE059
:103F500016DD0FC08091A00481110BC067E08AE0DC
:103F60000EDD07C08091A004811103C06FE08AE0DC
:103F700006DDDF91CF9108958091D60581110AC0A9
:103F80008091D505882339F083B18095881F8827D3
:103F9000881F089581E00895CF93DF938091D8051D
:103FA00081112DC0E9DF882341F08BE30E94C6090F
:103FB000882319F081E08093D805C9E9D5E08F8581
:103FC0001F921F921F928F938AE492E09F938F9388
:103FD0008CE894E09F938F930E9479468F8580931D
:103FE000D4052DB73EB7285F3F4F0FB6F8943EBFBC
:103FF0000FBE2DBF8091D805882309F444C08EE3FD
:104000000E94C609882339F08091D4058C3018F4B9
:104010008E5F8093D4058FE10E94C609882339F012
:104020008091D405833018F082508093D40580E3CA
:10403000A6DD8091D4051F921F921F928F938AE470
:1040400092E09F938F938CE894E09F938F930E94CC
:1040500079468BE30E94C6092DB73EB7285F3F4FD4
:104060000FB6F8943EBF0FBE2DBF882361F060915C
:10407000D4056093A8058CE090E00E94140410928F
:10408000D8051092D705DF91CF910895E0910105F1
:10409000F09102057196E491E23009F4A4C0E33096
:1040A00009F46CC1E13009F0F6C18EE30E94C60943
:1040B0008823C1F0E0910105F09102053F96E4915B
:1040C000F0E0EE0FFF1FCF01880F991F880F991F97
:1040D000880F991FE80FF91FE150FC4FF09302057C
:1040E000E09301058FE10E94C6098823C1F0E091A9
:1040F0000105F09102057096E491F0E0EE0FFF1FCC
:10410000CF01880F991F880F991F880F991FE80FFB
:10411000F91FE150FC4FF0930205E09301058BE39A
:104120000E94C6098823C1F0E0910105F0910205C3
:104130003D96E491F0E0EE0FFF1FCF01880F991F2D
:10414000880F991F880F991FE80FF91FE150FC4F46
:10415000F0930205E09301058DE30E94C6098823D0
:1041600009F499C180910105909102059C01225F9B
:104170003F4FF90144913297849150E0440F551F0D
:10418000BA01660F771F660F771F660F771F460FFE
:10419000571F90E0880F991FFC01EE0FFF1FEE0FD5
:1041A000FF1FEE0FFF1F8E0F9F1F4817590731F497
:1041B000E8E8F6E080818E7F80830895F9012491FC
:1041C00030E0220F331FC901880F991F880F991FF4
:1041D000880F991F280F391F21503C4F309302053B
:1041E0002093010508958091D905811184C08EE343
:1041F0000E94C6098823C1F0E0910105F0910205F3
:104200003F96849190E0880F991F9C01220F331FE5
:10421000220F331F220F331F820F931F81509C4F99
:1042200090930205809301058FE10E94C6098823BF
:10423000C1F0E0910105F09102057096849190E043
:10424000880F991F9C01220F331F220F331F220F4B
:10425000331F820F931F81509C4F909302058093D0
:1042600001058DE30E94C6098823E9F0E09101056C
:10427000F09102053E96849190E0880F991F9C0171
:10428000220F331F220F331F220F331F820F931F62
:1042900081509C4F9093020580930105E9E8F6E078
:1042A00080818D7F80838BE30E94C6098823F1F093
:1042B000E0910105F09102053C96849190E0880F11
:1042C000991FFC01EE0FFF1FEE0FFF1FEE0FFF1FE8
:1042D000E80FF91FE75FFB4F859194919093C70515
:1042E0008093C60581E08093D90505C08091D905EA
:1042F000882309F4D0C08091D805882339F18DE353
:104300000E94C6098823F1F01092D8051092D705B3
:10431000E7E8F6E08081817F8083E0910305F091FA
:1043200004058091C8059091C905A091CA05B09176
:10433000CB0580839183A283B383E9E8F6E0808193
:104340008D7F80838091D8058111A5C08DE30E9467
:10435000C609882309F49FC01092D905E8E8F6E061
:1043600080818F7E8083E7E8F6E08081817F808393
:10437000E9E8F6E080818D7F808308958091D905FA
:1043800081116BC08EE30E94C6098823C1F0E091C1
:104390000105F09102053F96849190E0880F991FE6
:1043A0009C01220F331F220F331F220F331F820F56
:1043B000931F81509C4F90930205809301058FE1DC
:1043C0000E94C6098823C1F0E0910105F091020521
:1043D0007096849190E0880F991F9C01220F331FE3
:1043E000220F331F220F331F820F931F81509C4FC8
:1043F00090930205809301058DE30E94C6098823EE
:1044000029F0E8E8F6E080818E7F80838BE30E94CC
:10441000C6098823F1F0E0910105F09102053C9670
:10442000849190E0880F991FFC01EE0FFF1FEE0FA3
:10443000FF1FEE0FFF1FE80FF91FE75FFB4F85918E
:1044400094919093C7058093C60581E08093D90528
:1044500004C08091D9058823F1F08091D805882384
:1044600071F08DE30E94C609882329F01092D805C7
:104470001092D70504C08091D80581110CC08DE33E
:104480000E94C609882339F01092D905E8E8F6E0C1
:1044900080818F7D80830895F9DD8091D9058823FF
:1044A00031F0E091C605F091C70519950895609126
:1044B0000105709102058CE894E00C94044608957F
:1044C0000F931F93CF938C01C62F8091D805811134
:1044D0005BC08BE30E94C609882319F081E08093BA
:1044E000D805F80180811F921F921F928F9384E557
:1044F00092E09F938F938CE894E09F938F930E9418
:1045000079462DB73EB7285F3F4F0FB6F8943EBFB0
:104510000FBE2DBFF80180818A30F1F038F482306F
:1045200099F08530A9F0813051F50BC08233E1F06C
:1045300018F48431A9F023C08436D1F0883CE1F02E
:104540001EC01092D4051BC081E08093D40517C013
:1045500082E08093D40513C083E08093D4050FC01C
:1045600084E08093D4050BC085E08093D40507C018
:1045700086E08093D40503C087E08093D4058091C2
:10458000D805882309F4D7C08EE30E94C609882382
:1045900039F08091D405883018F48F5F8093D4056A
:1045A0008FE10E94C609882339F08091D4058823C1
:1045B00089F081508093D4058091D40590E08830B3
:1045C000910508F06EC0FC018827EB57FF4F8F4F15
:1045D0000C94E24481E090E0A0E0B0E08093D0054C
:1045E0009093D105A093D205B093D3055AC082E031
:1045F00090E0A0E0B0E08093D0059093D105A09327
:10460000D205B093D3054DC085E090E0A0E0B0E0C6
:104610008093D0059093D105A093D205B093D30594
:1046200040C08AE090E0A0E0B0E08093D005909395
:10463000D105A093D205B093D30533C084E190E0B7
:10464000A0E0B0E08093D0059093D105A093D2056F
:10465000B093D30526C082E390E0A0E0B0E0809361
:10466000D0059093D105A093D205B093D30519C07E
:1046700084E690E0A0E0B0E08093D0059093D1056F
:10468000A093D205B093D3050CC088EC90E0A0E0D5
:10469000B0E08093D0059093D105A093D205B0935C
:1046A000D30588E36CDA8091D3058F938091D2058E
:1046B0008F938091D1058F938091D0058F9384E55E
:1046C00092E09F938F938CE894E09F938F930E9446
:1046D00079468BE30E94C6092DB73EB7285F3F4F4E
:1046E0000FB6F8943EBF0FBE2DBF882321F1109264
:1046F000D8051092D705C13049F46091D005609378
:104700009D0581E090E00E94140415C0C23049F478
:104710006091D00560939E0582E090E00E941404B1
:104720000AC0C33041F46091D00560939F0583E0D7
:1047300090E00E941404CF911F910F91089561E0C1
:104740008DE995E0BDCE089562E08EE995E0B8CEA2
:10475000089563E08FE995E0B3CE08950F931F931A
:10476000CF938C01C62F8091D805811153C08BE364
:104770000E94C609882369F081E08093D805F8017A
:1047800080818130E1F078F0823031F1833089F13D
:1047900041C0F8018081813091F028F08230E1F051
:1047A000833039F132C01092D40587E0EDE5F2E0B4
:1047B000ACE8B4E001900D928A95E1F726C081E063
:1047C0008093D40587E0E4E6F2E0ACE8B4E0019041
:1047D0000D928A95E1F719C082E08093D40587E0B5
:1047E000EBE6F2E0ACE8B4E001900D928A95E1F7D7
:1047F0000CC083E08093D40587E0E2E7F2E0ACE808
:10480000B4E001900D928A95E1F78091D805882354
:1048100009F4A2C08EE30E94C609882339F0809172
:10482000D405833018F48F5F8093D4058FE10E9404
:10483000C609882339F08091D405882371F081500E
:104840008093D4058091D4058130D9F030F0823046
:1048500081F1833009F445C05BC01092D0051092FD
:10486000D1051092D2051092D3058FE388D987E045
:10487000EDE5F2E0ACE8B4E001900D928A95E1F745
:1048800047C081E090E0A0E0B0E08093D005909335
:10489000D105A093D205B093D3058FE370D987E0FB
:1048A000E4E6F2E0ACE8B4E001900D928A95E1F71D
:1048B0002FC082E090E0A0E0B0E08093D00590931C
:1048C000D105A093D205B093D3058FE358D987E0E3
:1048D000EBE6F2E0ACE8B4E001900D928A95E1F7E6
:1048E00017C083E090E0A0E0B0E08093D005909303
:1048F000D105A093D205B093D3058FE340D987E0CB
:10490000E2E7F2E0ACE8B4E001900D928A95E1F7BD
:104910008BE30E94C6098823F9F01092D805109203
:10492000D705C13049F46091D4056093AE058EE09F
:1049300090E00E9414040AC0C23041F46091D40592
:104940006093AF058FE090E00E941404E9E9F5E080
:10495000668985890E94BC33CF911F910F9108957C
:1049600061E08EEA95E0FACE089562E08FEA95E084
:10497000F5CE08958FEF93E09093020580930105A3
:104980000895CF93DF93109239031092380320E6F5
:104990003AEE3093370320933603C82FD0E0CC0F84
:1049A000DD1FC153D94FFE01659174918CE894E0ED
:1049B0000E9404462091360330913703232B99F748
:1049C000DF91CF910895DF92EF92FF920F931F93A3
:1049D000CF93DF93EC018B017A01D22E80913003CB
:1049E00090913103892B41F488E99AE39093310344
:1049F000809330030E9415338091D80581113BC00C
:104A00008091D505811107C08091D605811103C021
:104A100021E0D21651F08BE30E94C609882329F0C9
:104A200081E08093D8051092D405F70181818F939E
:104A300080818F93F80181818F9380818F93898109
:104A40008F9388818F938DE192E09F938F938CE871
:104A500094E09F938F930E9479462DB73EB7265FCF
:104A60003F4F0FB6F8943EBF0FBE2DBF8091D805C3
:104A7000882309F421C188EE93E090933303809357
:104A800032038091D705811127C081E08093D7053B
:104A9000F70181818F9380818F93F80181818F93BA
:104AA00080818F9389818F9388818F9389E792E0AA
:104AB0009F938F938AEC94E09F938F930E94794603
:104AC0001092D4052DB73EB7265F3F4F0FB6F8942E
:104AD0003EBF0FBE2DBFF0C08FE20E94C6098823E3
:104AE00039F08091D405853018F48F5F8093D40518
:104AF00087E30E94C609882339F08091D405882372
:104B000019F081508093D4058EE30E94C609882352
:104B1000D9F08091D40590E0FC01E653FB4F208151
:104B2000422F50E0405351094930510534F4FC0103
:104B3000E653FB4F2F5F208307C0293329F4FC0184
:104B4000E653FB4F20E320838FE10E94C6098823B0
:104B5000D9F08091D40590E0FC01E653FB4F208111
:104B6000422F50E0405351091416150634F4FC014D
:104B7000E653FB4F2150208307C0203329F4FC016A
:104B8000E653FB4F29E32083FF92EF921F930F938D
:104B9000DF93CF9386E892E09F938F938AEC94E023
:104BA0009F938F930E94A7468091D4050E94AB1DCE
:104BB000F70181818F9380818F93F80181818F9399
:104BC00080818F9389818F9388818F938DE192E08B
:104BD0009F938F938CE894E09F938F930E947946E4
:104BE0008BE30E94C6092DB73EB72C5E3F4F0FB630
:104BF000F8943EBF0FBE2DBF882309F45DC010920C
:104C0000D8051092D705D11018C08091DE0590917B
:104C1000DF05499778F48091DC059091DD05CC970C
:104C200048F48091DA059091DB05CC9718F40E9446
:104C3000693242C085E0A5DE3FC031E0D31219C021
:104C40008091E2059091E3054F9780F48091E4050F
:104C50009091E5050D9750F48091E6059091E70558
:104C60008336910518F40E94B93226C085E089DEAA
:104C700023C082E0D81220C0888199814F97D0F458
:104C8000F801808191810D97A8F4F70180819181CD
:104C90008336910578F40E94D80782E090E0A0E086
:104CA000B0E080937A0490937B04A0937C04B0934B
:104CB0007D0402C085E065DEDF91CF911F910F91E9
:104CC000FF90EF90DF90089520E04AED55E06CED05
:104CD00075E08EED95E077CE089521E046EE55E043
:104CE00064EE75E082EE95E06ECE08958091D80571
:104CF000811119C041D9882341F08BE30E94C60974
:104D0000882319F081E08093D80587E0E3E9F2E099
:104D1000ACE8B4E001900D928A95E1F78091D80556
:104D2000882309F45DC08091D705811109C081E015
:104D30008093D7050E94F03A8093D4058093A40411
:104D40008091D405843639F484E01BDE1092D805B6
:104D50001092D70508958EE30E94C609882339F082
:104D60008091D4058C3018F48F5F8093D4058FE147
:104D70000E94C609882339F08091D405823018F04A
:104D800081508093D40580E30E94BF1D8091D4059B
:104D90001F921F921F928F938AE492E09F938F93AA
:104DA0008CE894E09F938F930E9479468BE30E9456
:104DB000C6092DB73EB7285F3F4F0FB6F8943EBFE8
:104DC0000FBE2DBF882361F06091D4058091A404AB
:104DD0000E94D23D1092D8051092D70588E0D1CD1F
:104DE0000895CF93C82F8091D705811137C081E0F6
:104DF0008093D7058091D0059091D105A091D205DF
:104E0000B091D305BB233CF4B095A09590958195C6
:104E10009F4FAF4FBF4F8093D0059093D105A09384
:104E2000D205B093D305BF93AF939F938F938AE935
:104E300092E09F938F938CEB94E09F938F930E94CB
:104E4000794685E08C1B8093BB048DB79EB708968E
:104E50000FB6F8949EBF0FBE8DBF09C18FE20E94AE
:104E6000C609882339F08091BB04853018F48F5F20
:104E70008093BB0487E30E94C609882371F02091C8
:104E8000BB04422F50E085E090E08C1B9109841711
:104E900095071CF421502093BB048EE30E94C609A1
:104EA0008823D9F08091BB0490E0FC01E454FB4FCF
:104EB0002081422F50E0405351094930510534F4CC
:104EC000FC01E454FB4F2F5F208307C0293329F4F2
:104ED000FC01E454FB4F20E320838FE10E94C609CC
:104EE0008823D9F08091BB0490E0FC01E454FB4F8F
:104EF0002081422F50E0405351091416150634F416
:104F0000FC01E454FB4F2150208307C0203329F4D7
:104F1000FC01E454FB4F29E320838CEB94E00E94D6
:104F200006456093D0057093D1058093D205909388
:104F3000D305C230E9F128F4CC2361F0C13009F186
:104F400092C0C43009F462C008F449C0C53009F405
:104F500074C089C09F938F937F936F9380EA92E090
:104F60009F938F938CE894E09F938F930E94794650
:104F70008DB79EB708960FB6F8949EBF0FBE8DBF33
:104F800072C09F938F937F936F938BEA92E09F936E
:104F90008F938CE894E09F938F930E9479468DB70E
:104FA0009EB708960FB6F8949EBF0FBE8DBF5BC02C
:104FB0009F938F937F936F9385EB92E09F938F9353
:104FC0008CE894E09F938F930E9479468DB79EB7AB
:104FD00008960FB6F8949EBF0FBE8DBF44C09F9336
:104FE0008F937F936F938EEB92E09F938F938CE8D8
:104FF00094E09F938F930E9479468DB79EB7089651
:105000000FB6F8949EBF0FBE8DBF2DC09F938F9398
:105010007F936F9386EC92E09F938F938CE894E05C
:105020009F938F930E9479468DB79EB708960FB6CF
:10503000F8949EBF0FBE8DBF16C09F938F937F9332
:105040006F938AE992E09F938F938CE894E09F930B
:105050008F930E9479468DB79EB708960FB6F89445
:105060009EBF0FBE8DBF8091BB040E94AB1DCF9130
:105070000895CF93DF938091D805811138C00E94A5
:10508000BC1F882341F08BE30E94C609882319F0D6
:1050900081E08093D805C9E9D5E08A858F93898519
:1050A0008F9388858F938F818F938FE092E09F936A
:1050B0008F938CE894E09F938F930E9479468F8121
:1050C0009885A985BA858093D0059093D105A09342
:1050D000D205B093D3058DB79EB708960FB6F89456
:1050E0009EBF0FBE8DBF8091D8058823F9F085E063
:1050F00078DE8BE30E94C6098823C1F01092D805A0
:105100001092D7054091D0055091D1056091D205FC
:105110007091D3054093A0055093A1056093A2051B
:105120007093A30584E090E00E945B04DF91CF912F
:105130000895CF93DF938091D805811138C00E94E4
:10514000BC1F882341F08BE30E94C609882319F015
:1051500081E08093D805C9E9D5E08E858F938D8550
:105160008F938C858F938B858F938FE092E09F93A5
:105170008F938CE894E09F938F930E9479468B8560
:105180009C85AD85BE858093D0059093D105A09375
:10519000D205B093D3058DB79EB708960FB6F89495
:1051A0009EBF0FBE8DBF8091D8058823F9F085E0A2
:1051B00018DE8BE30E94C6098823C1F01092D8053F
:1051C0001092D7054091D0055091D1056091D2053C
:1051D0007091D3054093A4055093A5056093A6054F
:1051E0007093A70588E090E00E945B04DF91CF9167
:1051F0000895CF93DF938091D805811138C00E9424
:10520000BC1F882341F08BE30E94C609882319F054
:1052100081E08093D805C9E9D5E08C898F938B898B
:105220008F938A898F9389898F938FE092E09F93E0
:105230008F938CE894E09F938F930E94794689899D
:105240009A89AB89BC898093D0059093D105A093AE
:10525000D205B093D3058DB79EB708960FB6F894D4
:105260009EBF0FBE8DBF8091D805882339F185E0A0
:10527000B8DD8BE30E94C609882301F11092D8059E
:105280001092D7054091D0055091D1056091D2057B
:105290007091D30514161506160617066CF4409384
:1052A000AA055093AB056093AC057093AD0584E1FE
:1052B00090E00E945B0402C085E063DBDF91CF9148
:1052C00008958091D805811138C08BE30E94C609EA
:1052D0008823E9F081E08093D805EAEDF5E0808548
:1052E000918544E6489F9001499F300D11248285A5
:1052F0009385A0E0B0E0820F931FA11DB11D8093A4
:10530000C6049093C704A093C804B093C90487E06F
:10531000EDECF2E0ACE8B4E001900D928A95E1F793
:105320001092D0051092D1051092D2051092D3059B
:105330008091D805882309F47CC083E052DD8BE39B
:105340000E94C609882309F474C01092D8051092EF
:10535000D7058091D0059091D105A091D205B0914B
:10536000D30585369440A105B10539F481E08093D9
:10537000D50588E006DB1092D9058091D005909183
:10538000D105A091D205B091D3058B3528E19207C4
:10539000A105B10509F03CC081E08093D60588E005
:1053A000F0DA1092D9058091C6049091C704A091BB
:1053B000C804B091C90480952FE092274091D00590
:1053C0005091D1056091D2057091D305841795074E
:1053D000A607B70739F481E08093D60588E0D1DAD3
:1053E0001092D9058091D0059091D105A091D20558
:1053F000B091D3058B3528E19207A105B105C9F01D
:1054000085369440A105B105A1F085E0BACA08959A
:105410004091C6045091C7046091C8047091C904BA
:1054200040952FE0522784179507A607B70741F745
:10543000D2CF0895CF92DF92EF92FF920F931F93F6
:105440008091A8050E94A937E9E8F6E08081826092
:1054500080838091300390913103892B09F055C0EE
:105460008091870680FD65C080919D0590E0880F42
:10547000991F092E000CAA0BBB0B4091760450918A
:105480007704609178047091790400917A04109106
:105490007B0420917C0430917D046C017D01C40E5D
:1054A000D51EE61EF71E0C151D052E053F056CF4D6
:1054B000481B590B6A0B7B0B401751076207730798
:1054C00024F483E00E94CE1D03C083E00E94DC1D13
:1054D0004091B60528EE33E0429FC001439F900DF6
:1054E0001124909331038093300380917A0490913A
:1054F0007B04A0917C04B0917D048093760490930A
:105500007704A0937804B093790480917A04909101
:105510007B04A0917C04B0917D04892B8A2B8B2B7A
:1055200041F48091870680FD04C082E00E94CE1D78
:1055300003C082E00E94DC1D8091D805811182C0E9
:1055400080918A0683FF2AC0EAE8F6E0877F80839D
:105550000E94EB0A60917A0470917B0480917C0434
:1055600090917D040E947E432091B8053091B90549
:105570004091BA055091BB050E94324420E030E0D2
:1055800040E05FE30E947B420E944B4360937A04B9
:1055900070937B0480937C0490937D040E94BC1FD5
:1055A000882341F08BE30E94C609882319F081E02B
:1055B0008093D80587E30E94C609882319F081E00B
:1055C0000E947C118091870680FD2FC080917D0410
:1055D0008F9380917C048F9380917B048F93809133
:1055E0007A048F938AE092E09F938F938CE894E003
:1055F0009F938F930E94794680917A0490917B04C7
:10560000A0917C04B0917D048093D0059093D10546
:10561000A093D205B093D3058DB79EB708960FB669
:10562000F8949EBF0FBE8DBF08C0E7EDF6E0659110
:1056300074918CE894E00E9404468091D8058823F8
:1056400009F45EC080918A0683FF06C0EAE8F6E0AE
:10565000877F80830E94EB0A85E0C3DB8BE30E9497
:10566000C609882309F44CC01092D8051092D705BA
:10567000E9E8F6E080818D7F80836091D0057091AC
:10568000D1058091D2059091D3050091AA05109182
:10569000AB052091AC053091AD056017710782070D
:1056A000930764F50E947E436B017C0160917A044C
:1056B00070917B0480917C0490917D0499233CF44B
:1056C00090958095709561957F4F8F4F9F4F0E9469
:1056D0007E439B01AC01C701B6010E94E342AB01CE
:1056E000BC014093B8055093B9056093BA05709317
:1056F000BB0588E190E00E94810402C085E041D9A9
:105700001F910F91FF90EF90DF90CF9008958091BF
:10571000880685FD9AC08BE30E94C609882329F07C
:10572000E8E8F6E080818062808387E0E4EDF2E0E3
:10573000ACE8B4E001900D928A95E1F710927A04FA
:1057400010927B0410927C0410927D041092D0057C
:105750001092D1051092D2051092D305809188063F
:1057600085FF8AC085E03DDB8BE30E94C609882364
:1057700009F482C04091BC055091BD056091BE0501
:105780007091BF058091D0059091D105A091D2056F
:10579000B091D305481759076A077B07F1F481E0F8
:1057A00090E0A0E0B0E080937A0490937B04A09313
:1057B0007C04B0937D041092D7051092D00510920E
:1057C000D1051092D2051092D30560E08CE190E0F3
:1057D0000E9414041092B505089585E0D2D8E8E837
:1057E000F6E080818F7D80831092D705089522E0B6
:1057F00044EC55E062EC75E080EC95E0E4C8089577
:1058000085E0EFDA8BE30E94C6098823A9F1409175
:10581000D0055091D1056091D2057091D305409388
:10582000BC055093BD056093BE057093BF058CE029
:1058300091E00E945B04E8E8F6E080818F7D808340
:105840001092D9051092D705089580917A0490910D
:105850007B04A0917C04B0917D0481309105A10569
:10586000B10529F282309105A105B10549F2892BD4
:105870008A2B8B2B09F476CF08958091D705882346
:1058800029F08091A7048E3229F52CC081E0809305
:10589000D7058091CF058F938091CE058F9380910E
:1058A000CD058F938091CC058F938BED92E09F93E4
:1058B0008F9387EA94E09F938F930E94794610928A
:1058C000A6048DB79EB708960FB6F8949EBF0FBE7C
:1058D0008DBF0895E8EAF4E081E090E021912E3256
:1058E00031F402C080E090E08093A50404C00196EA
:1058F0008A30910599F78FE20E94C609882399F0B2
:105900008091A604E82FF0E0E955FB4F91819E328B
:1059100019F48F5F8093A6048091A604863018F452
:105920008F5F8093A60487E30E94C609882399F0BD
:105930008091A604E82FF0E0EA55FB4F90819E325B
:1059400019F481508093A6048091A604882319F04D
:1059500081508093A6048EE30E94C6098823D9F063
:105960008091A60490E0FC01E955FB4F2081422F75
:1059700050E0405351094930510534F4FC01E955D8
:10598000FB4F2F5F208307C0293329F4FC01E95521
:10599000FB4F20E320838FE10E94C6098823D9F0C2
:1059A0008091A60490E0FC01E955FB4F2081422F35
:1059B00050E0405351091416150634F4FC01E95522
:1059C000FB4F2150208307C0203329F4FC01E95507
:1059D000FB4F29E3208387EA94E00E94034560930C
:1059E000CC057093CD058093CE059093CF0567EAE3
:1059F00074E08CE894E00E9416469091A5049130E2
:105A000051F48091030186FD83C08091A604823009
:105A100009F07EC03FC0923009F07EC08091030142
:105A200086FD0EC08091A6048823F1F109C0809103
:105A3000030186FD11C08091A604833069F43DC046
:105A4000923051F48091030186FD6AC08091A604D2
:105A5000833009F065C03DC0933089F48091030123
:105A600086FD04C08091A6048823E9F1809103019A
:105A700086FD05C08091A604813009F43FC0809165
:105A8000A604981720F481500C94AB1D08950C9433
:105A9000AB1D0895E7EAF4E0828181838EE2828380
:105AA00081E08093A60434C0E7EAF4E08181828338
:105AB0008EE281831092A604C3CFE7EAF4E08281EC
:105AC0008183838182838EE2838382E08093A60434
:105AD000C3CFE7EAF4E0838182838EE2838382E0AE
